:020000040800F2
:10000000E80500209D01000893240008491F00080E
:10001000912400082F090008E529000800000000CD
:100020000000000000000000000000008B26000817
:10003000B909000800000000892600088D26000884
:10004000B7010008B7010008B7010008B7010008B0
:10005000B7010008B7010008B7010008B7010008A0
:10006000B7010008B7010008B7010008B701000890
:10007000B7010008B7010008B7010008B701000880
:10008000B7010008B7010008B7010008B701000870
:10009000B7010008B7010008B7010008B701000860
:1000A000B7010008B7010008B7010008B701000850
:1000B000B7010008B7010008B7010008B701000840
:1000C000B7010008B7010008B7010008B701000830
:1000D000B7010008D9290008B7010008B7010008D6
:1000E000B7010008B7010008B7010008B701000810
:1000F000B7010008B7010008B7010008B701000800
:10010000B7010008B7010008B7010008B7010008EF
:10011000B7010008B7010008B7010008B7010008DF
:10012000B7010008B701000831090008B70100084D
:10013000B7010008B7010008B7010008B7010008BF
:10014000B7010008B7010008B7010008B7010008AF
:10015000B7010008B7010008B7010008B70100089F
:10016000B7010008B7010008B7010008B70100088F
:10017000B7010008B7010008B7010008000000003F
:10018000B7010008B7010008DFF80CD000F06CFBE5
:100190000048004771510008E805002006488047E4
:1001A00006480047FEE7FEE7FEE7FEE7FEE7FEE75C
:1001B000FEE7FEE7FEE7FEE72527000889010008C5
:1001C0002DE9F05F0546002092469B46884606468C
:1001D000814640241BE0284641464746224600F01F
:1001E0005DFA53465A46C01A914110D3114618463B
:1001F000224600F044FA2D1A67EB01084F462246CA
:100200000120002100F03BFA17EB00094E41201EAF
:10021000A4F10104DFDC484631462A464346BDE8E6
:10022000F09F2DE9F0410024061B254671F10006E0
:1002300005DA01240027D0EB070067EB0101161E49
:1002400073F1000605DA0027D2EB0702012567EB00
:100250000303FFF7B5FF86460E4617469C46AC42A1
:1002600004D00025D0EB050E65EB010624B100207B
:10027000D2EB000760EB030C704631463A4663460A
:10028000BDE8F081D2B201E000F8012B491EFBD29B
:1002900070470022F6E710B513460A460446194691
:1002A000FFF7F0FF204610BD30B50446002003469E
:1002B00000E05B1C934203D2E05CCD5C401BF8D0B5
:1002C00030BD2DE9FE4F804681EA0300C00F0C4689
:1002D000009021F0004123F00045B8EB0200A94155
:1002E00005D24046214690461C460B46024623F066
:1002F0000040104347D0270DC7F30A00C3F30A514B
:100300000290401A019040286BDAC3F3130040F4C6
:10031000801B0098924620B10023D2EB030A63EBC6
:100320000B0B01985946C0F14002504600F0A7F966
:1003300006460D4650465946019A00F0BFF910EBAB
:1003400008006141002487EA115284EAE7731A43E6
:1003500040D0009A62B3019A012A4FEA075215DC95
:10036000001B61EB02014FF0004202EA0752CDE9A7
:100370000042001C41F5801132462B4600F0F6F990
:1003800003B0BDE8F08F40462146F9E7001B61EB62
:100390000201001C41F5801300185B412018A2F5F2
:1003A000001747EB030140EAD570B6196D4111E023
:1003B0006D084FEA360645EAC0754FEA0752001B42
:1003C00061EB0201001C41F5801149084FEA300041
:1003D0000019514132462B4603B0BDE8F04F00F002
:1003E000B6B90098012240000023D0EB020263EB73
:1003F000E073009821464FEAE074B8EB000061EB2F
:100400000401E9E783F000435BE781F0004158E72E
:100410002DE9FE4F81EA030404F0004421F000417D
:1004200000944FF0000B23F0004350EA01045ED02B
:1004300052EA03045BD0C3F30A54C1F30A552C44B7
:10044000A4F2F3340194A0FB0254C1F3130141F46C
:100450008011C3F3130343F4801301FB024400FB38
:10046000034E840A970A44EA815447EA8357A4FB5F
:10047000076802958D0A05FB07854FEA932C04FB5C
:100480000C542705029D4FEA065847EA1637B5EB8C
:1004900008056EEB070C870E920E47EA811742EAB9
:1004A0008312A7FB0201B6EB0B0164EB00042B0DDA
:1004B00043EA0C335E1844EB1C50DA465146E7FB26
:1004C0000201C5F313044FEA0B3343EA14534FEA16
:1004D0000432019C43EA0603A4F10C040294009C3C
:1004E000CDE900B400F042F903B0BDE8F08F002080
:1004F0000146F9E72DE9F04D81EA030404F0004BD1
:1005000021F0004514464FF0000A23F0004150EA64
:10051000050220D054EA01021DD0C5F30A57024655
:10052000C5F31303C1F31300C1F30A5640F4801559
:1005300043F48013A7EB0608101BD64608F2FD38DB
:1005400073EB050002D308F1010801E092185B414A
:10055000B8F1000F03DA00200146BDE8F08D00205D
:100560004FF48011064684460EE0171B73EB050717
:1005700005D3121B63EB050306434CEA010C490843
:100580004FEA300092185B4150EA0107EDD152EA80
:10059000030012D082EA040083EA0501084305D073
:1005A000101BAB4106D20122002306E000224FF0CF
:1005B000004302E06FF0010253101AEB06004CEB0F
:1005C000085110EB0A0041EB0B01BDE8F04D00F0C3
:1005D000BEB80EB5C10F80EAE0700844CA0700211A
:1005E00040F233438DE80E000A460B4600F0BEF899
:1005F00003B000BD00F0004230F000400AD0C10D51
:1006000001F56071C0F3160042EA0151C2084007CB
:100610001143704700200146704701F0004330B499
:1006200021F0004150EA010206D00A0DA2F56072E5
:10063000C1F31301002A02DC30BC00207047440FD4
:1006400044EAC104C100E01830BC00EBC25000F025
:1006500047B830B50B46014600202022012409E0AE
:1006600021FA02F59D4205D303FA02F5491B04FA6B
:1006700002F52844151EA2F10102F1DC30BD202A4A
:1006800004DB203A00FA02F1002070479140C2F1E9
:10069000200320FA03F3194390407047202A04DB1B
:1006A000203A21FA02F00021704721FA02F3D040EB
:1006B000C2F120029140084319467047202A06DB08
:1006C000CB17203A41FA02F043EAE07306E041FA20
:1006D00002F3D040C2F1200291400843194670470E
:1006E0000029A8BF7047401C490008BF20F0010046
:1006F000704710B4B0FA80FC00FA0CF050EA010424
:1007000004BF10BC704749B1CCF1200421FA04F4B5
:1007100011FA0CF118BF012121430843A3EB0C018E
:10072000CB1D4FEA00614FEA102042BF002010BCF1
:10073000704700EBC35010440029A4BF10BC7047A1
:10074000401C490008BF20F0010010BC704710B5E4
:10075000141E73F1000408DA401C41F100019218E4
:100760005B411A4301D120F0010010BD2DE9F04D8D
:1007700092469B4611B1B1FA81F202E0B0FA80F2E2
:1007800020329046FFF77BFF04460F4640EA0A00FE
:1007900041EA0B0153465A46084313D0114653EA27
:1007A000010019D0C8F140025046FFF777FF054617
:1007B0000E46504659464246FFF761FF084305D0B2
:1007C000012004E020463946BDE8F08D00200543B5
:1007D00046EAE0762C4337430A986305E40AA0EB27
:1007E00008000022FD0A44EA47540A3002D50020DE
:1007F0000146E9E7010510196941DDE908450019DD
:100800006941BDE8F04DA2E7C1F30A52C1F31301FB
:1008100040F2FF3341F480119A4202DA002001468F
:10082000704740F233439A42A2F2334202DC524212
:10083000FFF734BFFFF723BF30B5041E71F100048A
:1008400004DB4FF00044404264EB0101141E73F1DD
:10085000000405DB1C464FF00043524263EB0403E7
:10086000994208BF904230BD064C074D06E0E06853
:1008700040F0010394E8070098471034AC42F6D3E7
:10088000FFF786FCB07A0008D07A00082DE9F04D19
:1008900000231A461B1A8A4103DB00200146BDE8EB
:1008A000F08DC1F30A52C1F3130141F480154FF0EA
:1008B000000BD10702D100186D41521E00270446DB
:1008C00040F2FF11384601EB620A3E46804602467E
:1008D00000204FF48011FFF7E1FEC2197141BB18EF
:1008E00046EB0100B4EB030C75EB000C04D3E41AE7
:1008F00065EB000517460E46241908F101006D410D
:1009000080463428E3DDF91946EB0600091BA841AF
:1009100003D24FF0FF32134601E0002213461BEBD7
:10092000070046EB0A51BDE8F04DFFF710BFFEE7A8
:10093000014800F09FB8000058010020016818230A
:10094000CAB2103AB2FBF3F2054B6FF30901032A66
:100950009B5CC36500D9091D81650846704700008E
:100960004C64000810B5014600208B698A6A4FF07C
:10097000C07453B1B3F5005F15D072B1012A0CD029
:10098000022A0AD0032A09D104E01AB1012A06D0AA
:10099000022A03D1C96AC90100D5012010BDC96A64
:1009A000A142FAD010BD002AF7D0012AF2D0022AC3
:1009B000F3D0032AF3D010BD704772B6FEE72DE9DD
:1009C000F0410446876D00F09FFA064694F8350022
:1009D0000025022806D08020606584F8345001206C
:1009E000BDE8F0812068016821F0160101602068EF
:1009F000416921F080014161206C08B9A06C20B1EF
:100A00002068016821F0080101602068016821F078
:100A1000010101600CE000F077FA801B052807D97E
:100A200020206065032084F8350084F83450D7E72F
:100A300020680068C007EED194F85C103F20884021
:100A4000B860012084F8350084F834500020C7E7EE
:100A500090F83510022903D08021416501207047AC
:100A6000052180F835100068016821F0010101605E
:100A7000002070472DE9F84304464FF00009CDF8F7
:100A8000009063484FF41651A56D0068B0FBF1F774
:100A90002E6894F85C10082000FA01F131420FD062
:100AA00021680A6852070BD50A6822F004020A601E
:100AB00094F85C108840A860606D40F001006065AB
:100AC00094F85C104FF0010808FA01F0304208D0A9
:100AD00021684969090604D5A860606D40F00200EC
:100AE000606594F85C1004208840304208D021688A
:100AF0000968890704D5A860606D40F0040060654E
:100B000094F85C1010208840304218D021680968A1
:100B1000090714D5A86020680168490304D5006856
:100B2000000308D5A16C07E00168C90503D401687A
:100B300021F008010160216C09B12046884794F832
:100B40005C1020208840304231D021680968C906F5
:100B50002DD5A86094F8350005282068016806D0D6
:100B6000490347D5006800031DD4616C1CE021F0E7
:100B7000160101602068416921F080014161206C0B
:100B800008B9A06C20B12068016821F0080101605B
:100B900094F85C103F208840A86084F8358084F881
:100BA0003490216D1FE0E16B09B120468847606DEC
:100BB00000282BD0606DC00714D0052084F83500C4
:100BC0002068016821F0010101600098401C00903C
:100BD000B84203D820680068C007F6D184F8358091
:100BE00084F83490E16C002910D001B02046BDE8B3
:100BF000F04308470168C905D5D4016821F0100108
:100C0000016084F8358084F83490CCE7BDE8F8833F
:100C1000200000202DE9F041044600F075F9064659
:100C20005CB1022084F83500002584F83450206837
:100C3000016821F0010101600DE00120BDE8F081B3
:100C400000F062F9801B052805D92020606503208B
:100C500084F83500F2E720680068C007F0D1226808
:100C6000116820480140D4E901031843D4E9033650
:100C70003343184363691843A3691843E36918436E
:100C8000236A18430843616A042903D1D4E90B138A
:100C900019430843106020684069666A20F0070124
:100CA00030460E43012704280CD1A06A0643E06AAF
:100CB00040B12046FFF756FE20B14020606584F821
:100CC0003570BAE7206846612046FFF737FE94F892
:100CD0005C203F2191408160656584F8357000207B
:100CE000ACE700003F8010F070B5044600F00CF94E
:100CF0000546601C02D004480078044400F004F962
:100D0000401BA042FAD370BD140000202DE9F84F1B
:100D1000DFF8BCA10022012503264FF00F090AF1DC
:100D2000040BAAF1040E00BF0B6805FA02F423407D
:100D3000A34270D10F7907F00307012F01D0022FD2
:100D400016D187684FEA420806FA08FC27EA0C0722
:100D5000D1F80CC00CFA08FC4CEA070CC0F808C02B
:100D60004768A7430C79C4F3001494403C434460A3
:100D70000C79E443A4070AD0C4684FEA420C06FA8F
:100D80000CF7BC438F6807FA0CF72743C7600C7950
:100D900004F00304022C12D1D40800EB840CDCF81C
:100DA00020405707FF0E09FA07F824EA0804D1F893
:100DB000108008FA07F848EA0408CCF82080046894
:100DC0004FEA420C06FA0CF7BC430F7907F0030711
:100DD00007FA0CF7274307604C6814F4403F70D0C3
:100DE0003C4C276847F480472760246822F00307BB
:100DF00004F480440094384C07EB040CDCF80848F9
:100E000097074FEA177809FA08F7BC43334FB842FF
:100E100002D1002724E054E0314FB84201D101272C
:100E20001EE0304FB84201D1022719E02E4FB842E0
:100E300001D1032714E02D4FB84201D104270FE060
:100E40002B4FB84201D105270AE02A4FB84201D101
:100E5000062705E0284FB84201D1072700E0082700
:100E600007FA08F72743CCF80878DAF80040574625
:100E7000D1F804C09C435FEACC2C00D51C433C60F5
:100E8000DBF800405F46D1F804C09C435FEA8C2C3D
:100E900000D51C433C60DEF800407746D1F804C022
:100EA0009C435FEA8C3C00D51C433C60084F083FE4
:100EB0003C68D1F804C09C435FEACC3C00D51C439D
:100EC0003C60521C102AFFF42FAFBDE8F88F0000E1
:100ED000083C01404438024000300140000002401C
:100EE0000004024000080240000C024000100240D2
:100EF0000014024000180240001C02400AB1816147
:100F000070470904FBE70000014880687047000053
:100F10001400002070B5040025D094F83D00002591
:100F200020B984F83C50204600F04CFA242084F884
:100F30003D002068016821F001010160206801681E
:100F400041F4004101602068016821F40041016022
:100F500000F0C2FB4D4A6168914201D84C4900E063
:100F60004C49884201D2012070BD4B492368B0FB37
:100F7000F1F15E6826F03F060E435E6063689342BF
:100F800006D94FF4967359434FF47A73B1FBF3F1DA
:100F90002368491C1E6A26F03F06314319626168C6
:100FA000914210D84900401EB0FBF1F2521CC2F32E
:100FB0000B02042A01D2042022E0B0FBF1F0401C15
:100FC000C0F30B001CE0A268F2B301EBC10303EB1A
:100FD0000116431EB3FBF6F35B1C43F480431B0571
:100FE00049D092B301EBC10202EB0111401EB0FBEC
:100FF000F1F0401CC0F30B0040F4804040F400408E
:101000002168CA694CF6FF739A431043C861D4E95A
:10101000071001432068026822F0C00211430160FA
:10102000D4E9030101432068826848F2FF339A4300
:1010300011438160D4E9050108432168CA6822F0A0
:10104000FF021043C86001E00EE016E0206801686E
:1010500041F0010101602564202084F83D002563F2
:1010600084F83E50002070BD01EB4106431EB3FBE7
:10107000F6F35B1CB3E70120C2E701EB4101401E20
:10108000B0FBF1F0401CC0F30B00B7E7A0860100F5
:1010900080841E0000093D0040420F002DE9FF4FF3
:1010A00083B09A46DDE9119793460446DDF8408007
:1010B000FFF72AFF054694F83D00202870D1192338
:1010C000012271492046009501F04EF80028F5D123
:1010D00094F83C00012863D0012084F83C0020688B
:1010E0000168C90703D1016841F00101016020686E
:1010F000016821F400610160222084F83D00402055
:1011000084F83E0000262664C4F82480A4F82A90BF
:10111000608D20855D48E062CDE9007553465A46F2
:101120002046049900F028FF00287CD1208DD0B102
:10113000012821D00228206824D0416980690090CC
:10114000208D032869D801282BD0514902283B461D
:101150004FF00002009559D08846204601F004F86F
:10116000002860D13CE020684169816900910168F4
:1011700041F40071016077E02068016821F480612A
:101180000160F0E7016821F4806101602068016876
:1011900041F400610160206841698069009063E06A
:1011A0006FE02A463946204601F05DF898BB20687A
:1011B0000069616A08704EE02068016841F40071BE
:1011C000016020680069616A0870606A401C6062A2
:1011D000218D491E2185618D491E6185216838E078
:1011E0002068016821F48061016020680069616AFB
:1011F0000870606A401C6062208D401E2085608DF2
:10120000401E60853B46002241460095204600F086
:10121000ABFF00B9D0E706E0FFE72A463946204693
:1012200001F021F818B1012007B0BDE8F08F206867
:101230000069616A0870606A401C6062218D491E05
:101240002185618D491E618521684A69D243520713
:101250000AD409690170606A401C6062208D401EDA
:101260002085608D401E6085208D00287FF468AF4A
:10127000202084F83D0084F83E6084F83C60002023
:10128000D2E70220D0E70000020010000000FFFFBC
:10129000040001002DE9FF4F83B09A46DDE9119764
:1012A00093460446DDF84080FFF72EFE054694F88D
:1012B0003D0020287FD11923012240492046009576
:1012C00000F052FF002876D194F83C00012872D03B
:1012D000012084F83C0020680168C90703D1016837
:1012E00041F0010101602068016821F400610160A2
:1012F000212084F83D00402084F83E00002626642A
:10130000C4F82480A4F82A90608D20852C48E062DF
:10131000CDE9007553465A462046049900F0AAFECE
:1013200070B930E02A463946204600F0CFFF58B168
:10133000206C042804D12068016841F40071016028
:10134000012007B0BDE8F08F606A2168007808616D
:10135000606A401C6062218D491E89B22185628DC0
:10136000521E628522685369DB435B070BD469B167
:1013700000781061606A401C6062208D401E2085EC
:10138000608D401E6085208D0028CBD12A463946CD
:10139000204600F0C3FE0028CAD154F83D0B016876
:1013A00041F400710160202004F81E09E677667799
:1013B0000020C6E7FFE70220C3E70000020010009C
:1013C0000000FFFFF0B587B0044614216846FEF721
:1013D00060FF2348214F26680021214C103812233A
:1013E00003220425BE421BD1266846F4001626605F
:1013F000246804F400140594046844F002040460B2
:10140000006802AE00F00200059086E82600100297
:10141000CDE9000369461348FFF778FC07B0F0BD3B
:10142000114FBE42FAD1066846F0200606600068F9
:1014300002AE00F020000590CDE9002386E82600EA
:1014400069460A48FFF762FC206840F4800020608B
:10145000206800F480000590E0E7000000540040A0
:10146000403802400004024000580040001402408E
:10147000024881680278114481607047140000209E
:101480000B4810B5016841F400710160016841F436
:1014900080610160016841F480710160032000F007
:1014A0006FF80F2000F006F800F024F8002010BDBF
:1014B000003C024070B50D4D04464FF47A71287817
:1014C000B1FBF0F00A490968B1FBF0F000F00AFB4B
:1014D00048B9102C07D200222146501E00F030F8E7
:1014E00000206C6070BD012070BD00001400002061
:1014F000200000200A4808B5016841F480410160DD
:10150000006800F4804000900548001F016841F029
:1015100080510160006800F08050009008BD00001C
:1015200044380240002809DB00F01F0201219140ED
:101530004009800000F1E020C0F800117047000071
:10154000F0B40E4B1B680C46C3F30223C3F107052E
:10155000042D00D90425191D072901D2002300E01C
:10156000DB1E012606FA05F1491E214099409E40E6
:10157000761E16403143F0BC01F096BA0CED00E047
:10158000064900F0070208684FF6FF03184040EADA
:101590000220034A10430860704700000CED00E091
:1015A0000000FA052DE9F0470E46050065D0DFF88A
:1015B0001481D8F80000F7B200F00700B04207D25B
:1015C00088F80070D8F8000000F00700B04254D14D
:1015D00028683D4C810712D5400703D5206840F4A8
:1015E000E05020602878000703D5206840F4604070
:1015F00020602068A96820F0F00008432060287867
:10160000C0072DD0304968680839012812D0022857
:1016100013D0032811D00968890700292DDA216821
:1016200021F0030101432160FFF76EFC814641F286
:10163000883A0EE009688903EFE709688901ECE759
:10164000FFF762FCA0EB0901514502D90320BDE878
:10165000F0872068696800F00C00B0EB810FEFD1D3
:10166000D8F80010404601F00701B14207D90770D1
:10167000006800F00700B04201D00120E7E72878B9
:10168000400705D52068E96820F4E0500843206051
:101690002878000706D52068296920F4604040EAD0
:1016A000C100206000F038F82168084AC1F3031136
:1016B000515CC8400649086006480068FFF7FAFE1A
:1016C0000020C4E7003C024008380240546400088F
:1016D000200000201800002004480549006809681F
:1016E000044AC1F38221515CC840704720000020A9
:1016F0000838024064640008044805490068096825
:10170000044AC1F34231515CC840704720000020B8
:101710000838024064640008154810B5006810F0ED
:101720000C02144813D04110042A0FD0082A0ED1FD
:101730000F4C241F2268236802F03F025B0207D58A
:101740002068C0F38810A0FB010106E0084610BD28
:101750002168C1F38811A1FB00010023FEF730FDD1
:101760002168C1F30141491C4900B0FBF1F010BDF3
:10177000083802400024F4002DE9F84F04006ED030
:101780002078DFF84C93C007A9F104054AD009F18D
:1017900004000168C1F38101012908D00068C0F389
:1017A000810002280AD1D9F80000400206D5286835
:1017B000800337D560680028E1D033E06068B0F579
:1017C000803F10D0B0F5A02F286810D020F48030D2
:1017D0002860286820F4802028606068A8B1FFF79E
:1017E00093FB06460DE0286840F48030F4E740F4AF
:1017F00080202860F7E700BFFFF786FB801B642886
:1018000073D828688003F7D50CE0FFF77DFB064608
:1018100005E000BFFFF778FB801B6428F0D828683C
:101820008003F7D42078DFF8AC8280074FF0000AFD
:101830003ED5A748001D016811F00C0F08D00068C4
:10184000C0F3810002280BD1D9F80000400207D470
:101850002868800716D5E068012800D112E033E13E
:10186000E068B8B10120C8F80000FFF74DFB06465C
:1018700005E000BFFFF748FB801B0228C0D828689E
:101880008007F7D52868216920F0F80040EAC100F8
:1018900028600DE0C8F800A0FFF736FB064604E01C
:1018A000FFF732FB801B02281FD828688007F7D477
:1018B0002078000722D5864F87486169703771B15B
:1018C00001210160FFF720FB064604E0FFF71CFB47
:1018D000801B022809D838688007F7D50EE0C0F8C9
:1018E00000A0FFF711FB064605E082E0FFF70CFBC6
:1018F000801B02287DD838688007F7D420784007FD
:1019000068D5DFF8CCB100270BF13C0BDBF8000009
:10191000C0000BD4DBF8001041F08051CBF8001070
:10192000DBF80000012700F0805000906B4E30681B
:10193000C00510D4306840F480703060FFF7E4FADE
:10194000009005E0FFF7E0FA0099401A022850D80D
:101950003068C005F6D55E4EA0686C3601280FD001
:101960000528306810D020F001003060306820F089
:1019700004003060A068B8B1FFF7C6FA00900FE02D
:10198000306840F00100F4E740F004003060F7E711
:10199000FFF7BAFA0099411A41F28830814266D8BD
:1019A00030688007F4D50EE0FFF7AEFA009007E04C
:1019B000FFF7AAFA0099411A41F28830814256D8BD
:1019C00030688007F4D42FB1DBF8001021F080518B
:1019D000CBF80010A069C8B33D49091D0968C1F3DF
:1019E000810102294AD00228504607D0C8F8600079
:1019F00000E03CE0FFF788FA04463BE04746C8F8C1
:101A00006000FFF781FA064605E000BFFFF77CFAA9
:101A1000801B02282BD828688001F7D4D4E907015D
:101A20000843A16A2E4A490802EB0141626A41EA71
:101A30008211084394F82C1040EA0161C9F80010A3
:101A400001203866FFF760FA044606E03EE000BF7A
:101A5000FFF75AFA001B022809D828688001F7D539
:101A600034E000BFFFF750FA001B022802D9032020
:101A7000BDE8F88F28688001F4D427E00128F7D06A
:101A8000D9F80000E26900F4800191421CD1226A79
:101A900000F03F01914217D147F6C071626A0140E0
:101AA000B1EB821F10D1A26A4FF0FF3300F4403136
:101AB00003EB5202B1EB024F06D194F82C1000F068
:101AC0007060B0EB016F01D00120D1E70020CFE7BB
:101AD0000438024000004742800E47420070004038
:101AE0000000FFFF10B5401EB0F1807F01D3012040
:101AF00010BD4FF0E02460610F21601700F0D4FFAB
:101B00000020A06107202061002010BD70477047B1
:101B1000F8B5016804460868CA684B6910F00F0FF1
:101B20004FF0000559D003F0010602F490773743D7
:101B300065D0C10705D0D10503D5216C41F0010165
:101B40002164410705D5D90703D0216C41F002017A
:101B50002164810705D5D90703D0216C41F0040128
:101B60002164010707D502F02001314303D0216C25
:101B700041F008012164216C00293AD0800604D587
:101B8000900602D5204600F004FE20684069216CD2
:101B9000C0F38010090700D460B3204600F0D2FDE6
:101BA00020684069400621D52068143050E8001FA5
:101BB00021F0400140E80012002AF5D1A06BA8B145
:101BC0006C490165A06BFEF743FF002811D0A06BA4
:101BD000016D01B0BDE8F040084783060FD59306BC
:101BE0000DD52046BDE8F84000F0D3BD2046FFF7F4
:101BF0008EFFF8BD2046FFF78AFF2564F8BD266BEF
:101C00002023012E79D1C60677D5D60675D508686A
:101C1000486800904869400640D5A16B0868406854
:101C20000004000CEAD0A28D8242E7D9E085C869A1
:101C3000B0F5807F2DD020680C3050E8001F21F4D3
:101C4000807140E80012002AF5D12068143050E875
:101C5000001F21F0010140E80012002AF5D12068A0
:101C6000143050E8001F21F0400140E80012002A23
:101C7000F5D184F83E30256320680C3050E8001F11
:101C800021F0100140E80012002AF5D1A06BFEF708
:101C900096FEA08DE18D401A81B229E0A08DE18DE4
:101CA000401A81B2E08D0028A8D00029A6D0206873
:101CB0000C3050E8002F22F4907240E80026002EED
:101CC000F5D12068143050E8002F22F0010240E8DE
:101CD0000026002EF5D184F83E30256320680C30B4
:101CE00050E8002F22F0100240E80023002BF5D12D
:101CF0002046FFF70BFFF8BDFFE705062BD51506BD
:101D000029D594F83D002128F5D1A068B0F5805F71
:101D100001D12069B0B1206A411C2162216800789C
:101D20004860E08C401E0004000CE084E3D1206891
:101D3000C16821F08001C1602068C16841F04001A4
:101D4000C160D8E7206A0088C0F308004860206AB4
:101D5000801C2062E5E74006CDD55006CBD5CA6889
:101D6000204622F04002CA6084F83D3000F0EBF8D3
:101D7000C1E700003527000870B5040004D094F8CE
:101D80003D00002510B106E0012070BD84F83C50F4
:101D9000204600F023F8242084F83D002068C16824
:101DA00021F40051C160204600F054FD2068016913
:101DB00021F4904101612068416921F02A014161CB
:101DC0002068C16841F40051C1602564202084F876
:101DD0003D0084F83E00002070BD000070B586B064
:101DE000064614216846FEF754FA244930688842B2
:101DF00041D123480025016841F0100101600068CD
:101E000000F0100005901E481438016841F00101EF
:101E100001600068694600F0010005904FF4C06061
:101E200000900220CDE901050320039007200490D3
:101E30001448FEF76BFF154C134820604FF000600C
:101E4000C4E901054014C4E9035080106561C4E988
:101E50000650256220466562FEF7DCFE08B1FEF7FB
:101E6000ACFDB463002211462520A663FFF768FB92
:101E70002520FFF757FB06B070BD000000100140A1
:101E800044380240000002404064024058010020F3
:101E9000704700002DE9F843044690F83D001F46C6
:101EA00016460D4620284CD1C5B1BEB194F83C0071
:101EB000012846D0012084F83C004FF00008C4F807
:101EC0004080212084F83D00FFF71EF8A68481465B
:101ED000E684A068B0F5805F03D004E00120BDE88F
:101EE000F883206928B12E465FF0000584F83C8015
:101EF0000EE00026FAE78021204600F031FDA0B96F
:101F0000AEB116F8010B21684860E08C401EE084F9
:101F1000E08C4B464FF0000200970028EBD14FF0C9
:101F20004001204600F01CFD30B10320D7E735F812
:101F3000020BC0F30800E6E7202084F83D000020F3
:101F4000CDE70220CBE77047FEE701684A69D2433C
:101F500052050FD46FF480624A61002140F8301FAF
:101F6000202242738173026942F00402026101730C
:101F700001207047002070472DE9F84F04460068A3
:101F800089460B9D01689846174641F480610160BF
:101F90002068016841F48071016000954FF0011BD9
:101FA0000022594620460A9B00F0DEF84FF4007AE2
:101FB00040B120680068C00501D5C4F840A00320E6
:101FC000BDE8F88F216809F0FE0008612B4628491A
:101FD00020460A9A00F0FCF8F0BB2068416980694D
:101FE00000902A4620460A9900F070F940B1206C12
:101FF00004283AD12068016841F40071016034E09E
:10200000FEB2B8F1010F09D02168380A08612A46EA
:1020100020460A9900F05AF90028E8D120680661A4
:102020002A4620460A9900F051F90028DFD120689D
:10203000016841F4807101600095002259462046F4
:102040000A9B00F091F80028B3D1216809F0FF0045
:1020500040F00100086100E007E02B4604492046FB
:102060000A9A00F0B5F80028AAD00120A8E70000DD
:10207000020001002DE9F843044600680D46DDE941
:10208000089701689846164641F4807101604B46F6
:1020900000224FF001112046009700F065F848B18A
:1020A00020680068C00502D54FF40070206403204A
:1020B000BDE8F883216805F0FE0008613B464A460A
:1020C0001549204600F084F888B920684169806984
:1020D00000903A464946204600F0F8F848B1206C96
:1020E000042804D12068016841F4007101600120D6
:1020F000DEE7F5B2B8F1010F09D02168300A0861B6
:102100003A464946204600F0E1F80028E7D1206829
:1021100005610020CCE700000200010070B5164602
:102120000D4604460DE02046FFF70FFF08B10120E1
:1021300070BD681C05D0FEF7E7FE801BA84207D8DB
:1021400035B120684069C0434007ECD4002070BD21
:10215000002044F8300F20216173A073216941F001
:10216000200121612073E2E72DE9F0471E469046E9
:102170000D460446C1F30747DDF8209008E0701CC7
:1021800006D0FEF7C1FEA0EB0900B0420FD876B131
:102190002068012F18D0806925EA00000004000C97
:1021A00014D000214145EAD00020BDE8F08700208E
:1021B00044F8300F20216173A073216941F02001A0
:1021C000216120730120F0E74069E5E70121E9E79B
:1021D0002DE9F0479A4691460E46044600254FF0F9
:1021E0002008C1F3074725E020684069C043400547
:1021F00014D42068016841F40071016021686FF413
:1022000080604861256384F83D8084F83E50206CEE
:1022100040F00400206484F83C501FE0B9F1FF3F17
:1022200008D0FEF771FEA0EB0A0149450CD8B9F1C0
:10223000000F09D02068012F13D0806926EA000022
:102240000004000C0BD0CFE744F8305F84F80D8019
:10225000A573206940F02000206125730120BDE8AE
:10226000F0874069EAE72DE9F041002590460E46E7
:102270000446202717E04069C043C0060CD454F838
:10228000301B6FF01000486144F810596777A5774C
:10229000206A2062257717E0FEF736FEA0EB0800E3
:1022A000B04208D83EB120684169C9434906E2D42A
:1022B0000020BDE8F08144F8305F6773A5732069A2
:1022C00040F02000206125730120F2E770B516462A
:1022D0000D4604460DE02046FFF737FE08B1012009
:1022E00070BD681C05D0FEF70FFE801BA84207D802
:1022F00035B120684069C0430006ECD4002070BDB1
:10230000002044F8300F20216173A073216941F04F
:10231000200121612073E2E7094808B5016841F412
:10232000800101600068002200F4800000901146E6
:102330003A20FFF705F9BDE808403A20FFF7F2B868
:102340003038024070B586B014216846FDF7A1FF11
:102350001E480024016841F020010160016801F07D
:1023600020010591016841F080010160016801F0E0
:1023700080010591016841F002010160016801F0EE
:1023800002010591016841F0010101600068104EF1
:1023900000F001004FF400750590002229463046F8
:1023A000FEF7ACFD0120CDE900500220CDE902048A
:1023B00069463046FEF7AAFC6801CDE9000469468B
:1023C00004480294FEF7A2FC06B070BD303802400B
:1023D00000140240000402400D4810B50B49016092
:1023E0000C49416000214FF480428160C0E9031232
:1023F00041618161C1610162FEF78CFD002803D05B
:10240000BDE81040FEF7D9BA10BD000000540040EE
:102410006C000020A08601000D4810B50B4901603A
:102420000C49416000214FF480428160C0E90312F1
:1024300041618161C1610162FEF76CFD002803D03A
:10244000BDE81040FEF7B9BA10BD000000580040CA
:10245000C0000020A08601000C4810B50A490160A8
:102460004FF4E1314160002181600C22C160C0E97C
:1024700004128161C161FFF77FFC002803D0BDE831
:102480001040FEF79ABA10BD001001401401002060
:10249000FEE7FEE7002000F001B8000070B5064638
:1024A0005FF0000404F1B000C0B200F09DFA00201B
:1024B00000F09AFA102000F097FA0025304600F05C
:1024C000A5FA6D1CEDB2802DF8D3641CE4B2082C83
:1024D000E8D370BD10B56420FEF706FCAE2000F016
:1024E00083FA202000F080FA102000F07DFAB0205E
:1024F00000F07AFAC82000F077FA002000F074FAB1
:10250000102000F071FA402000F06EFA812000F0F7
:102510006BFAFF2000F068FAA12000F065FAA6200F
:1025200000F062FAA82000F05FFA3F2000F05CFAA9
:10253000A42000F059FAD32000F056FA002000F051
:1025400053FAD52000F050FAF02000F04DFAD920CF
:1025500000F04AFA222000F047FADA2000F044FAAC
:10256000122000F041FADB2000F03EFA202000F0BB
:102570003BFA8D2000F038FA142000F035FABDE85F
:102580001040AF2000F030BA10B50446B031C8B2E8
:1025900000F02AFA102040EA141000F025FA04F0A6
:1025A0000F00BDE8104040F0010000F01DBA00002F
:1025B0002DE9F047002591468A460446012B22D09A
:1025C000DFF8BC80022B24D155E02038C7B27E2C26
:1025D00004D90AF10100002400F0FF0A5146204608
:1025E000FFF7D2FF07EB4700002608EB4007B85D76
:1025F00000F00CFA761CF6B2062EF8D3A41D6D1C62
:10260000E4B2EDB201E0DFF87C8019F805000028A3
:10261000DBD1BDE8F0872038C7B2782C04D90AF1A5
:102620000100002400F0FF0A51462046FFF7ACFFEE
:102630005FF0000606EB071118F8010000F0E6F95C
:10264000761CF6B2082EF5D30AF10100C1B220467D
:10265000FFF79AFF5FF0000606EB071101EB080099
:10266000007A00F0D3F9761CF6B2082EF4D30834C1
:102670006D1CE4B2EDB219F805000028CBD1C8E713
:10268000DE720008B670000870477047FEF7F0BEB3
:1026900030B593B030216846FDF7FBFD14210CA83E
:1026A000FDF7F7FD1D480025016841F080510160EC
:1026B000006800F0805011901948016841F4804191
:1026C00001600068022400F4804011900120009015
:1026D000000401908001CDE9064008AA0420A82149
:1026E00082E813000B906846FFF746F808B172B60F
:1026F000FEE70CA90F2081E831004FF4A0500F90A5
:102700004FF48050109005210CA8FEF74BFF0028D5
:1027100001D072B6FEE713B030BD00004038024071
:10272000007000400248016841F470010160704788
:1027300088ED00E010B5806B0021C185C184FFF7F2
:10274000E6F910BD01680C3151E8002F22F49072B7
:1027500041E80023002BF5D10168143151E8002F26
:1027600022F0010241E80023002BF5D1016B012981
:1027700009D101680C3151E8002F22F0100241E824
:102780000023002BF5D1202180F83E1000210163A9
:10279000704708B590F83E10222901D0022008BDEC
:1027A00082684FF480539A4201D1016921B1816A54
:1027B0009A421BD04AB10AE00268816A5268C2F3A9
:1027C00008020A80816A891C08E0026972B1026805
:1027D000526802F07F020A70816A491C8162C18DD1
:1027E000491E0904090CC18503D019E0026852682A
:1027F000F1E70168CA6822F02002CA600168CA686D
:1028000022F48072CA6001684A6922F001024A61BA
:10281000202180F83E10016B012903D0FFF738FB1F
:10282000002008BD0021016301680C3151E8002F30
:1028300022F0100241E80023002BF5D101680A685C
:10284000D20602D50A6849680091818DFFF75EF9CA
:10285000E6E7000070B5044600680169E26821F40B
:102860004051114301612169A068E269084361692F
:10287000114308432168CA6849F20C639A43024332
:10288000CA6020684169A26921F440711143416125
:1028900031492068884202D03049884202D1FEF78F
:1028A0002BFF01E0FEF718FFE269002319216425E0
:1028B0003226B2F5004F626828D0A0FB0101930FC9
:1028C0009200FDF77DFC0146B0FBF5F06FF01802B9
:1028D000504301EB800006EB0010B0FBF5F000F078
:1028E000F002B1FBF5F002EB0012B1FBF5F06FF076
:1028F0001803584301EB800006EB0010B0FBF5F025
:1029000000F00F0021681044886070BDA0FB010139
:1029100092185B41FDF754FC0146B0FBF5F0020153
:10292000B1FBF5F06FF01803584301EB800006EBA4
:10293000C000B0FBF5F000F0F80002EB4002B1FB84
:10294000F5F0584301EB800006EBC000B0FBF5F05A
:1029500000F00700D6E7000000100140001401401D
:102960002DE9F041984617460E460446069D27E09D
:10297000681C25D02DB1FEF7C7FAA0EB0800A842CD
:102980001ED920680C3050E8001F21F4D07140E8B7
:102990000012002AF5D12068143050E8001F21F001
:1029A000010140E80012002AF5D1202084F83D0002
:1029B00084F83E00002084F83C000320BDE8F0814C
:1029C0002068006836EA000004D00020B842CFD06A
:1029D0000020F3E70120F9E70148FFF799B800006C
:1029E00014010020FEE7000001B584B0012164223B
:1029F00004A88DE807000B46002278210248FEF764
:102A000049FC05B000BD00006C00002001B584B099
:102A10000121642204A88DE807000B46402278219A
:102A20000248FEF737FC05B000BD00006C00002036
:102A30000FB4054B10B503A9044A029800F0E0FD5D
:102A400010BC5DF814FB0000754C00086400002009
:102A50000FB4084B10B504A902AA039800F0D0FDEA
:102A6000044602A9002001F062F9204610BC5DF87E
:102A700014FB00002F3D000803B4019841000098AA
:102A800050EAC12018BF04204A0D18BF40F00100D1
:102A900040F2FF72B2EB515F08BF40F00200012824
:102AA00008BF052002B070470907090E002804DBA3
:102AB00000F1E02080F80014704700F00F0000F1F2
:102AC000E02080F8141D704770B5C1482DED020B51
:102AD0002DED0E8B82B0119D25F000449FEDBEDBE5
:102AE0009FEDBFEB84423EDBA4F140511098A1F171
:102AF0007F6108430FD0BC48844202DC28D1109883
:102B000030B39DED100B02B0BDEC0E8B02B0BDE8F2
:102B1000704000F069BC9DED100B53EC1D2B51EC87
:102B2000100BFDF775FC9DED100B41EC180B53ECF1
:102B30001E2B51EC100BFDF76BFC53EC182BFDF723
:102B4000C0FB41EC100B02B0BDEC0E8B02B070BDAF
:102B5000012000F08DFC02B0BDEC0E8B02B0BDE890
:102B6000704000F055BCA1489FEDA18B844256DA1D
:102B70009DED100BB4F1795F0ADA51EC100BFFF701
:102B80007BFF042808BF00F053FC9DED100BDAE733
:102B900053EC102B51EC100BFDF73AFC41EC190BE8
:102BA00095480621B0EE490AF0EE690A784400F033
:102BB0009FFB53EC192B51EC100BFDF729FC41EC5A
:102BC0001A0B8E48B0EE490AF0EE690A04217844E7
:102BD00000F08EFB53EC192B51EC100BFDF718FC99
:102BE00053EC182BFDF76DFB41EC100B51EC1A0B5D
:102BF00053EC102BFDF77EFCCDE900019DED000BA1
:102C000053EC102B9DED100B51EC100BFDF700FC5D
:102C10009DED101B53EC112BFDF753FBD2E09DED06
:102C2000100B51EC100B02F019F853EC182BFDF7B8
:102C3000ECFB9FED730BCDE9000153EC102B9DEDE8
:102C4000000B51EC100BFDF7E3FB41EC190B6E4848
:102C50000621B0EE490AF0EE690A784400F048FB1C
:102C600053EC192B51EC100BFDF7D2FB41EC1B0B75
:102C70006648B0EE490AF0EE690A0421784400F093
:102C800037FB53EC192B51EC100BFDF7C1FB53EC48
:102C9000182BFDF716FB41EC1C0B51EC190B03F044
:102CA0007FFA41EC180B5A489FED5BABA04222DC47
:102CB00053EC1C2B51EC1B0BFDF71CFCCDE9000168
:102CC0009DED000B51EC180B53EC102BFDF7A0FB06
:102CD00053EC182BFDF7F5FA53EC1A2BFDF798FB84
:102CE00053EC1D2BFDF78EFB53EC1E2BFDF78DFBDC
:102CF00041EC100B5FE08DED008B002000909DED0E
:102D0000000B51EC180B53EC102BFDF7DAFA9DED8C
:102D1000000B41EC1E0B53EC102B51EC100BFDF78C
:102D200077FB53EC192BFDF770FB53EC1E2BFDF7D3
:102D3000E1FB41EC190B53EC1C2B51EC1B0BFDF789
:102D4000D9FB41EC1B0B53EC1A2B51EC190BFDF783
:102D50005FFB53EC1D2BFDF758FB41EC190B53ECBB
:102D60001A2B51EC180BFDF753FB53EC1B2BFDF703
:102D70004FFB53EC192BFDF745FB9DED000B41EC90
:102D8000180B53EC1A2B51EC100BFDF741FB9FED88
:102D9000249B53EC192BFDF738FB41EC100B51EC45
:102DA000180B53EC102BFDF72DFB53EC192BFDF7F3
:102DB0002CFB41EC100B002D3FF7C5AE51EC100B76
:102DC00081F0004141EC100BBDE600000000000066
:102DD0000000F03F00000000075C143326A6913C81
:102DE000182D4454FB21F93F0000F07F0000E03F24
:102DF000000000000000F03F204D00002E4D0000BC
:102E0000000000000000E03F724C0000804C000019
:102E10003333EF3F000000000000000000000040DE
:102E2000182D4454FB21E93F70B59B482DED020B52
:102E30002DED068B079D25F00044A04218DC974835
:102E4000844202DC0AD1069840B19DED060BBDEC30
:102E5000068B02B0BDE8704000F0C6BA002DCCBFB2
:102E60009FED8F0B9FED900BBDEC068B02B070BDFC
:102E70008F48A04215DD8F48A042D8BF4FF0FF34E5
:102E800058DD9DED060B51EC100BFFF7F5FD042806
:102E900008BF00F0CDFA9DED060BBDEC068B02B02D
:102EA00070BD9DED060B51EC100B01F0D7FECDE986
:102EB000060181489FED828BA0423CDD8248A04202
:102EC0001FDD00249FED82AB9DED060B53EC1A2B0A
:102ED00051EC100BFDF7F5F99DED060B41EC190BCC
:102EE00053EC1A2B51EC100BFDF792FA53EC182B04
:102EF000FDF788FA53EC192BFDF7FCFACDE9060132
:102F000049E09DED060B012453EC182B51EC100BFE
:102F1000FDF7D7F99DED060B41EC190B53EC182B7F
:102F200051EC100BFDF76EFA53EC192BFDF7E2FA9A
:102F3000CDE906012FE06848A0421FDD02249FED85
:102F4000689B9DED060B53EC192B51EC100BFDF714
:102F50005FFA53EC182BFDF7B4F99DED060B41EC2D
:102F6000180B53EC192B51EC100BFDF74BFA53ECEB
:102F7000182BFDF7BFFACDE906010CE09DED060B1D
:102F8000032453EC102B9FED580B51EC100BFDF765
:102F9000B1FACDE906019DED060B53EC102B51EC77
:102FA000100BFDF735FA41EC180B53EC182BFDF71D
:102FB0002FFA41EC190B4E480621B0EE490AF0EE0B
:102FC000690A784400F094F953EC182B51EC100B7B
:102FD000FDF71EFA41EC180B4648B0EE490AF0EE38
:102FE000690A0521784400F083F953EC192B51EC60
:102FF000100BFDF70DFA41EC100B51EC180B53ECD4
:10300000102B002C0EDAFDF75CF99DED061B53EC3E
:10301000112BFDF7FDF99DED061B53EC112BFDF770
:10302000F4F935E0FDF74DF99DED061B53EC112B3E
:10303000FDF7EEF941EC100B2F48784400EBC4008B
:1030400090ED001B51EC100B53EC112BFDF7DAF94E
:103050009DED061B53EC112BFDF7D4F941EC100B41
:103060002648784400EBC40090ED001B51EC100B97
:1030700053EC112BFDF7C9F941EC100B002DA2BF49
:10308000BDEC068B02B070BD51EC100B81F000411D
:1030900041EC100B01E70000000010440000F07F3D
:1030A000182D4454FB21F93F182D4454FB21F9BF3E
:1030B0000000DC3F0000203E0000F33F0000000065
:1030C000000000000000F03F0000E63F00000000AC
:1030D00000000000000000400080034000000000ED
:1030E000000000000000F83F000000000000F0BFFA
:1030F000C24900007849000002490000BA480000B7
:1031000070B56B4E2DED040B2DED028B82B0DDF80A
:103110001CC0DDE905235C422CF000411C4341EA60
:10312000D474049D22F00040B44205D86C422C4374
:1031300040EAD474B4420BD99DED061B9DED040BFF
:1031400002B0BDEC028B04B0BDE8704000F056B98F
:10315000ACF14054A4F17F641C430BD0022404EA78
:10316000AC7444EAD27405439FED538B9FED542B0E
:1031700007D015E09DED040B51EC100B00F024FE80
:1031800042E0002C11BF012C9DED040B02B0BDEC00
:10319000028B04BF04B070BD022C38D0032C3BD08E
:1031A0000B439FED491B9FED4A0B0AD0B14218D14A
:1031B000B04209D121F0804120F080400791059074
:1031C0000FE0002A15DA10E0434B7B44002C08BFC7
:1031D00093ED000B0DD0012C10D0022C17D0032C36
:1031E0001AD0B0421DD1002A03DAB0EE410AF0EE47
:1031F000610A02B0BDEC028B04B070BD93ED000B10
:1032000051EC100B81F0004141EC100BF1E7B0EEF6
:10321000480AF0EE680AECE7B0EE420AF0EE620A05
:10322000E7E7401A00153C28C8BF8DED000B19DCFC
:10323000BCF1000FBEBF10F13C0F9FED290B8DEDCF
:10324000000B0FDB9DED060B53EC102B9DED040BDB
:1032500051EC100BFDF74EF901F000FD00F0B4FD4C
:10326000CDE90001002C08BF9DED000BC1D0012C61
:1032700010D0022C9FED1C0B53EC102B9DED000B7E
:1032800051EC100B0DD0FDF7BDF853EC182BFDF7EA
:10329000B9F8B9E7019880F0004001909DED000B6E
:1032A000A7E7FDF7AFF853EC182BFDF7AEF8ABE747
:1032B0000000F07F00000000182D4454FB2109405D
:1032C000182D4454FB2109C0182D4454FB21F9BF8B
:1032D000182D4454FB21F93FEA470000000000008C
:1032E0000000000000000000075C143326A6A13C8B
:1032F00070B504462DED028B4D1E00EBC500B0EEFF
:10330000408AF0EE608A90ED000B35F0060017D091
:1033100053EC182B51EC100BFDF77AF841EC100B25
:103320006D1E04EBC50090ED001B51EC100B53EC2F
:10333000112BFCF7C6FF41EC100B35F00600E7D16E
:10334000022D36D0042D1CD0062D1CBFBDEC028BE7
:1033500070BD53EC182B51EC100BFDF759F894EDA0
:103360000A1B53EC112BFCF7ACFF53EC182BFDF7A9
:103370004FF894ED081B53EC112BFCF7A2FF41EC26
:10338000100B53EC182B51EC100BFDF741F894ED9A
:10339000061B53EC112BFCF794FF53EC182BFDF795
:1033A00037F894ED040B53EC102BFCF78AFF41EC3B
:1033B000100B53EC182B51EC100BFDF729F894ED82
:1033C000021B53EC112BFCF77CFF53EC182BFDF781
:1033D0001FF894ED001B53EC112BFCF772FFBDECB2
:1033E000028B41EC100B70BD10B553EC102B51EC5F
:1033F000100BFCF766FF41EC100B10BD10B553EC41
:10340000112B51EC100BFCF75CFF41EC100B10BDC5
:103410009FED050B10B553EC102B51EC100BFDF785
:1034200069F841EC100B10BD000000000000000026
:103430009FED050B10B553EC102B51EC100BFCF766
:10344000E7FF41EC100B10BD000000000000001071
:1034500002E008C8121F08C1002AFAD1704770475D
:10346000002001E001C1121F002AFBD170470000BB
:103470000149086070470000680000202DE9FF5FE7
:1034800082B00021DDE90430020DDDF840B00343D5
:1034900018D044F61050A2F2FF324243151411988E
:1034A00001281FD0A5EB0B00401C5FEA000A4FF07B
:1034B00000064E4FDFF83891B046504615D5CAF198
:1034C000000413E0119801244AA3012801D16FEAF6
:1034D0000B010298119AC0E90031C0E9024206B01E
:1034E000BDE8F09FCBF10000DFE704460021404A31
:1034F000491842EB0450CDE9001012E0E00707D074
:1035000032463B4640464946FCF782FF80468946A4
:1035100032463B4610461946FCF77AFF06460F46F0
:103520006410002CEAD1DDE90401DDE90023BAF1E1
:10353000000F06DAFCF76CFF42464B46FCF768FFCB
:1035400005E0FCF7D7FF42464B46FCF7D3FF0446A5
:103550000E460022284BFDF76FF903D84FF0FF30DD
:10356000014607E00022254B20463146FCF7A9FE24
:10357000FDF74AF9102409E0002C0ADB0A22002397
:10358000FCF71EFE039B30321A55641E50EA0102FE
:10359000F2D1641C039AC4F111031444119A012A54
:1035A00003D0012208430DD10AE0084304D00020D3
:1035B0004FF0110B119072E7A3EB0B056D1E0DE0A0
:1035C0005B4504DD4FF0000205F1010504E003DA7C
:1035D0004FF00002A5F10105002AECD002981199E4
:1035E000C0E90231C0E9004579E70000000014405D
:1035F0000000F03F300000000000F0430000E03F1A
:103600002DE9FF4F95B09B468946064600250FE2FF
:10361000252877D100242746F84A0121059400E0A7
:10362000044316F8013F203B01FA03F01042F7D1A2
:1036300030782A2811D06FF02F033078A0F13002B3
:10364000092A16D8059A44F0020402EB820203EB21
:1036500042021044761C0590EFE759F8042B0592BE
:10366000002A03DA504244F40054059044F0020466
:10367000761C30782E2816D116F8010F44F0040479
:103680002A280DD06FF02F023078A0F13003092BDB
:1036900009D807EB870302EB4303C718761CF3E74F
:1036A00059F8047B761C30786C280FD006DC4C2847
:1036B00017D068280DD06A2814D104E0742810D0DF
:1036C0007A280FD10DE044F400140AE044F4801489
:1036D00001E044F440147278824202D104F580146F
:1036E000761C761C307866280BD013DC582877D0EF
:1036F00009DC002875D04528F6D04628F4D04728A4
:103700001AD19DE118E0632835D0642879D0652866
:1037100012D195E1702873D008DC6728F1D06928B0
:103720006FD06E280DD06F2806D1B5E073282CD04D
:10373000752875D0782874D05A46179990476D1C13
:1037400075E1C4F30250022809D003280DD0D9F83E
:10375000001004280DD00D6009F1040967E1D9F8C3
:103760000010EA17C1E90052F6E7D9F800100D8001
:10377000F2E70D70F0E719F8041B8DF80010002037
:103780008DF80100EA46012003E059F804AB4FF040
:10379000FF3061074FF0000102D40DE008F1010194
:1037A0008846B9420FDA8045F8DB1AF8081000297C
:1037B000F4D108E008F1010188468142FADB1AF8E9
:1037C00008100029F6D105985B46A0EB08072146B2
:1037D0003846179A00F094FA284400EB080507E0F1
:1037E0004DE029E10DE01AF8010B5A461799904770
:1037F000B8F10108F7D25B4621463846179A13E123
:1038000042E00A220092C4F302524FF0000A022A58
:1038100008D059F804CB032A4FEAEC710AD00DE026
:1038200029E02AE009F1070121F00702F2E802C1CC
:10383000914609E00FFA8CFC4FEAEC71042A03D19F
:103840004FFA8CFC4FEAEC71002907DA0A46002196
:10385000DCF1000C61EB02012D2202E0220504D50F
:103860002B228DF80420012203E0E20701D0202260
:10387000F7E7904659E00A2102E010220DE01021FE
:103880004FF0000A00910BE010224FF0000A44F0C4
:1038900004040827009203E008224FF0000A009277
:1038A000C4F30252022A05D059F804CB0021032A9E
:1038B00008D009E009F1070121F00702F2E802C18E
:1038C000914605E01FFA8CFC042A01D10CF0FF0C94
:1038D0004FF00008220728D5702806D0009B83F0FF
:1038E000100353EA0A0305D00EE040228DF80420AD
:1038F000012208E05CEA010206D030228DF80420A3
:103900008DF8050002229046009B83F0080353EADD
:103910000A030AD15CEA010201D1620705D530220F
:103920008DF804204FF001087F1E582804D034A0E1
:1039300003900EA802900DE036A0F9E753466046CA
:10394000009AFCF73DFC84460398825C0298401E76
:10395000029002705CEA0100F0D1029806A9081AF0
:1039600000F1200A600702D524F4803400E001272A
:10397000574502DDA7EB0A0000E0002000EB0A013A
:10398000009005984144401A0590E00306D45B4638
:103990002146179A059800F0B3F90544002706E080
:1039A00001A85A46C05D179990476D1C7F1C47457A
:1039B000F6DBE0030CD55B462146179A059800F02C
:1039C0009FF9054404E030205A46179990476D1C32
:1039D0000099481E00900029F5DC08E00298029941
:1039E0005A460078491C0291179990476D1CBAF10C
:1039F0000001AAF1010AF1DC65E1000009280100DB
:103A00003031323334353637383961626364656654
:103A10000000000030313233343536373839414216
:103A2000434445460000000000F058F90544761C68
:103A3000307800287FF4ECAD19B02846BDE8F08F4F
:103A4000620700D4062709F1070222F0070CFCE800
:103A50000223E14603F000485FEA080C02D00FF2AF
:103A6000702C0DE05FEA045C02D50FF2682C07E0D1
:103A70005FEAC47C02D00FF2602C01E0AFF2700C60
:103A80004FF0FF3823F00043CDF850C065280CD02C
:103A900006DC452809D046281DD047283DD13DE009
:103AA000662818D067287ED138E00021112F01DB6D
:103AB000112000E0781CCDE9000106A90EA8FFF74F
:103AC000DDFCDDE90F010E9A03910021009207F160
:103AD000010A04914DE04FF000400097CDE901103C
:103AE00006A90EA8FFF7CAFCDDE90F0203920E9BA0
:103AF00011990022DDF80CA00093049211B9791CF1
:103B000000EB010AB7EB0A0004D4C0F1FF3007F163
:103B1000010A0490AAEB0700019044E0012F00DAAB
:103B200001270021112F01DD112000E03846CDE9E9
:103B3000000106A90EA8FFF7A1FCDDE90F010E9A0E
:103B40000391002104910092BA4621070CD40399F5
:103B5000514500DA8A46BAF1010F05DD009AAAF153
:103B60000101515C302908D0B84202DA10F1040F8B
:103B700006DA0121CDE9011015E0AAF10101E9E71A
:103B8000002805DC049901440491AAEB000102E03D
:103B9000411C514500DD8A460499401A401C0190A1
:103BA0004FF000400290200704D40198504501DBFB
:103BB000CDF8048000208DF84F0002980DF14F07DA
:103BC000B0F1004F25D02B200E9002984FF0020844
:103BD00000280CDA404202902D200E9007E00A21C6
:103BE0000298FCF736FD3031029007F8011DB8F15C
:103BF0000001A8F10108F2DC02980028EFD1791E3B
:103C00000E980870307800F0200040F0450007F86A
:103C1000020D12A8C01B00F107081498007800B12B
:103C2000012000EB0A01019801EBE0710598414485
:103C3000401A401E0590E00306D45B462146179AC1
:103C4000059800F05DF805441498007818B15A46BC
:103C5000179990476D1CE00324D55B462146179ABF
:103C6000059800F04DF805441CE00498002807DB97
:103C7000DDE90301884203DD0098405C179901E00B
:103C8000179930205A469047049805F10105401CC9
:103C900004900198401E019004D12E205A46179995
:103CA00090476D1CBAF10001AAF1010ADDDC05E0C4
:103CB00017F8010B5A46179990476D1CB8F100018F
:103CC000A8F10108F4DC5B462146179A0598ABE69B
:103CD0002D0000002B000000200000002DE9F04125
:103CE000044600251E461746880404D405E03946DC
:103CF0002020B0476D1C641EF9D52846BDE8F08130
:103D00002DE9F041044600251E469046C80301D522
:103D1000302700E02027880404D505E041463846D6
:103D2000B0476D1C641EF9D52846BDE8F0810A68CD
:103D3000531C0B6010707047FEB506460D460024FC
:103D4000684600F0A3FF00229FED1B1A6B4601217D
:103D500056F8227055F82200381A00D5404200EE7D
:103D6000100A03EB8200B8EEC00AD0ED000A20EE84
:103D7000010AF5EEC00AF1EE10FA0DD0C0EE201ADD
:103D8000B7EE000A0D4F31EEC00AB0EEC00A10EED9
:103D9000100AB84207DC09E010EE100A084F384458
:103DA000084FB84202D301FA02F00443521C032A1E
:103DB000CEDB2046FEBD000000008037295C0F3EB0
:103DC000666666C19A99D90010B541EC100BFFF7F1
:103DD0002BF851EC100B10BD08B560B120208DF808
:103DE000000028208DF8010030208DF802003820D6
:103DF0008DF8030004E0A32204216846FCF742FA90
:103E00006A46042140F69E2002F06CF801F02AFD7B
:103E100008BD00003EB5044602208DF80000CA200F
:103E20008DF80100E3208DF8020009208DF80300D1
:103E30006A460421682002F055F8A3208DF800009E
:103E4000610609D5C0218DF80110C8218DF8021036
:103E5000C2218DF8031005E08DF801008DF80200F5
:103E60008DF8030014F4C07F09D0C4218DF804102C
:103E7000CC218DF80510C6218DF8061005E08DF8CF
:103E800004008DF805008DF806008DF808008DF807
:103E900007008DF809006A460A2140F6A72002F0C3
:103EA00021F8A0074FF0D80503D020208DF800009E
:103EB00001E08DF800506A46012140F6B62002F07C
:103EC00011F8A00601D5012000E0002000F08EF8D6
:103ED00014F4C07F1ED0E0050AD5B2208DF8000092
:103EE0008B208DF80100B6208DF802009B2009E0A0
:103EF000B0208DF8000080208DF80100B4208DF8EE
:103F0000020090208DF803006A46042140F6A220AA
:103F100001F0E8FFE1074FF40B6022D0F8218DF8A3
:103F200000106A46012101F0DDFFFA21072000F0B0
:103F3000BFFD072000F08AFD012000F0A7FD6420EE
:103F400000F066FE4FF4FA7000F072FEC8212548BA
:103F500000F044FD282000F059FD0A2000F066FD25
:103F600005E08DF800506A46012101F0BBFFA00773
:103F700003D5D9208DF8000001E08DF800506A4685
:103F8000012140F23D7001F0ADFF600701D5012035
:103F900000E0002000F048F8E00601D5012000E034
:103FA0000020FFF719FF104D44F00800688101F070
:103FB00059FC0020A873600601D50620A87314F4EC
:103FC000C07F02D0A87B801DA87314F0140F02D00C
:103FD000A87B1030A873A00702D0A87B001DA8738F
:103FE00000203EBD09E3CA02B80100200EB54FF41F
:103FF000976310B106A107C901E008A207CA8DE8BE
:1040000007006A460921184601F06CFF0EBD00004A
:10401000B8AAB38DB4980D355D000000B8AAAAAA5D
:10402000B088C3C5C700000008B560B1C0208DF8D6
:104030000000C2208DF80100C4208DF80200C620C7
:104040008DF8030004E08B2204216846FCF71AF97E
:104050006A46042140F6982001F044FF01F002FC7A
:1040600008BD00003EB54FF47A74CDE900320A462F
:104070000146029401230248FDF710F83EBD0000FE
:10408000C00000203EB54FF4FA74CDE900320A4674
:104090000146029401230248FDF7FCF83EBD0000F2
:1040A000C0000020F8B5002000906B460122752169
:1040B000D120FFF7D7FF83A0FEF7BAFC8AA0FEF756
:1040C000B7FC8FA0FEF7B4FC9DF800108DA0FEF7A2
:1040D000AFFC9DF8001091A0FEF7AAFC88A0FEF7A7
:1040E000A7FC9DF8000068280CD0BFF34F8F9148C3
:1040F0000168914A01F4E06111430160BFF34F8F01
:1041000000BFFDE701F0CCF900287DD1782001F057
:104110008DFE10B96BA0FEF78BFC73A0FEF788FC38
:1041200077A0FEF785FC782001F0E6F810B983A0AF
:10413000FEF77EFC8BA0FEF77BFC71A0FEF778FCFF
:10414000642001F033FE10B98DA0FEF771FC96A03B
:10415000FEF76EFC6AA0FEF76BFC00F007FA10B9E0
:1041600099A0FEF765FCA5A0FEF762FC64A0FEF72F
:104170005FFCAC48044600F0D7FF0546E01C00F0A9
:10418000D3FF45EAC005A01D00F0CEFF45EA801030
:1041900080B200F09DFB10B9A3A0FEF749FCACA0D3
:1041A000FEF746FC56A0FEF743FC40F27310FFF703
:1041B00031FE10B9AEA0FEF73BFCB7A0FEF738FC0D
:1041C0004FA0FEF735FC642000F0EAFA10B9B8A061
:1041D000FEF72EFCBFA0FEF72BFC49A0FEF728FC43
:1041E00001F05CFF012001F007FD10B9C1A0FEF74E
:1041F0001FFCC9A0FEF71CFCCEA0FEF719FCC820CE
:10420000FCF772FDCD4800E05AE0FEF711FCC82033
:10421000FCF76AFDC948FEF70BFCC820FCF764FDFB
:10422000C648FEF705FCC820FCF75EFDC1A0FEF7FE
:10423000FFFBC34D00244FF49676C14801F07EFE8B
:104240002868FCF7D7F941EC100BBEA053EC102BFB
:10425000FEF7EEFB6868FCF7CDF941EC100BBCA053
:1042600053EC102BFEF7E4FBA868FCF7C3F941EC14
:10427000100BBAA053EC102BFEF7DAFB20A0FEF7D0
:10428000D7FB1420FCF730FD641CA4B2B442D4D395
:10429000C820FCF729FDB448FEF7CAFBC820FCF78C
:1042A00023FDB148FEF7C4FBC820FCF71DFDAE4856
:1042B000FEF7BEFBC820FCF717FD9EA0FEF7B8FB7B
:1042C000F8BD00006D70755F7365745F73656E7324
:1042D0006F7220636F6D706C657465202E2E2E2EAC
:1042E0002E2E0D0A000000006D7075C9E8D6C3B40B
:1042F000ABB8D0C6F7CDEAB3C9202E2E2E2E2E2E67
:104300000D0A00004465766963655F49443A2020E0
:104310002020307825780D0A00000000C9E8B1B8E7
:1043200049443A20202020202020307825780D0A8A
:10433000000000000CED00E00400FA056D70755FF0
:10434000636F6E6669677572655F6669666F206325
:104350006F6D706C657465202E2E2E2E2E2E0D0A1C
:10436000000000006D7075C5E4D6C34649464FCDC8
:10437000EAB3C9202E2E2E2E2E2E0D0A000000008C
:104380006D70755F7365745F73616D706C655F727E
:1043900061746520636F6D706C657465202E2E2EC0
:1043A0002E2E2E0D0A0000006D7075C9E8B6A8B556
:1043B000C4B2C9D1F9C2CACDEAB3C9202E2E2E2E5D
:1043C0002E2E0D0A00000000646D705F6C6F61643A
:1043D0005F6D6F74696F6E5F6472697665725F6638
:1043E00069726D7761726520636F6D706C6574655D
:1043F000202E2E2E2E2E2E0D0A000000444D50BCD5
:10440000D3D4D8B6AFD7F7C7FDB6AFB3CCD0F2B9D7
:10441000CCBCFECDEAB3C9202E2E2E2E2E2E0D0A98
:10442000000000005A000020646D705F7365745FC7
:104430006F7269656E746174696F6E20636F6D7001
:104440006C657465202E2E2E2E2E2E0D0A00000077
:10445000444D50C9E8D6C3CDD3C2DDD2C7B7BDCF16
:10446000F2CDEAB3C9202E2E2E2E2E2E0D0A0000DC
:10447000646D705F656E61626C655F6665617475C1
:10448000726520636F6D706C657465202E2E2E2E04
:104490002E2E0D0A00000000444D50CAB9B9A6C422
:1044A000DCCDEAD5FB202E2E2E2E2E2E0D0A00005E
:1044B000646D705F7365745F6669666F5F72617467
:1044C0006520636F6D706C657465202E2E2E2E2E08
:1044D0002E0D0A00444D50C9E8B6A84649464FCBB8
:1044E000D9C2CACDEAB3C9202E2E2E2E2E2E0D0AE9
:1044F000000000006D70755F7365745F646D705FC0
:10450000737461746520636F6D706C657465202EC3
:104510002E2E2E2E2E0D0A006D7075C9E8D6C344BE
:104520004D50D7B4CCACCDEAB3C9202E2E2E2E2EB2
:104530002E0D0A000D0A0D0A0D0A0000107A00085F
:10454000D801002050697463683A2025660920006C
:10455000526F6C6C3A202025660920005961773A29
:1045600020202025660920005C7A0008C8234FF42B
:104570008062024940F6F63001F056B8C064000887
:104580002DE9FF4F89B01746DDE9165200244D4E44
:10459000884681462C80A246B07B694601F0F0F83F
:1045A0004FF0FF3B18B158460DB0BDE8F08F708951
:1045B00010F0140F3ED0009909BA21F0FF029DF8C7
:1045C00003100A433A6001999DF8073009BA21F0B7
:1045D000FF0119437960029B9DF80B401BBA23F041
:1045E000FF032343BB60039C121424BA24F0FF0C86
:1045F0009DF80F4009144CEA040C1024C7F80CC0B5
:104600001B144FEA2C4712FB02F211FB012113FB92
:1046100003F217FB07221144A1F17061B1F1007F91
:1046200004D901F01FF9A5F800A0BCE7298841F4DE
:10463000807129804206694611D50A19A41D138884
:104640005BBAA8F8003053885BBAA8F802309288A9
:1046500052BAA8F804202A8842F008022A8010F4EE
:10466000C07F11D00A19A41D13885BBAA9F80030C5
:1046700053885BBAA9F80230928852BAA9F804208C
:104680002A8842F070022A80800716D00C44E07815
:1046900000F0C00500F03F016078C00706D0C808F0
:1046A00001F007013268491C02B1904760780007A9
:1046B00003D5716809B1A80988470C9800F0C8FAB9
:1046C000002071E7B80100202DE9FF41044603A84E
:1046D00000F05AFEBDF80C00410CC3032F480289BC
:1046E00002F00300550754F8200000D54042C2F301
:1046F000C105960654F8255000D56D42C2F38116C7
:10470000D20554F8264000D56442A0FB0367C217C7
:1047100002FB037200FB0120820042EA9670A5FBB7
:104720000367EA1702FB037205FB0122950045EAC5
:104730009672A4FB0367E51705FB037304FB0131C5
:104740008B0043EA9671030E8DF80030030C8DF850
:104750000130030A8DF802308DF80300100E8DF839
:104760000400100C8DF80500100A8DF80600080EE4
:104770008DF80800080C8DF80900080A8DF80A0069
:104780008DF807208DF80B106A460C214FF4257028
:1047900001F0A8FB04B0BDE8F0810000B8010020E2
:1047A00030B5044613A285B007CA8DE807004FF064
:1047B000FF35C82C16D8C820B0FBF4F1491E080AF2
:1047C0008DF80C008DF80D1003AA022140F216207E
:1047D00001F088FB30B96A460C2140F6C12001F097
:1047E00081FB10B1284605B030BD0548848100200A
:1047F000F9E70000FEF2ABC4AAF1DFDFBBAFDFDFF9
:10480000B8010020F8B53049098901F0030250F8D9
:1048100022404A0700D56442C1F3C1028B0650F81A
:10482000222000D55242C1F3811350F82330C8052D
:1048300000D55B42254984FB0140850045EA947020
:1048400082FB0142A40F44EA820483FB0121950FFD
:1048500045EA8105010E8DF80010010C8DF801105C
:10486000010A8DF802108DF803006A4604214FF406
:10487000747001F037FB4FF0FF3688B9200E8DF8C9
:104880000000200C8DF80100200A8DF802008DF840
:1048900003406A4604214FF4757001F023FB08B110
:1048A0003046F8BD280E8DF80000280C8DF8010068
:1048B000280A8DF802008DF803506A4604214FF44F
:1048C000767001F00FFBF8BDB801002009E3CA02C1
:1048D0002DE9FF4104463CA004F003030068029068
:1048E0003AA0006803903AA006683AA0056802A8BA
:1048F000C15C8DF80010C4F3C101425C8DF8012049
:10490000C4F38112805C8DF8020003A8C35C8DF8AB
:104910000430415C8DF80510805C8DF806006A4615
:10492000032140F2264001F0DDFA4FF0FF37E0BBF3
:1049300001AA032140F22A4001F0D4FAA8BBCDE934
:10494000006560070BD59DF8000040F001008DF870
:1049500000009DF8040040F001008DF80400A0065E
:104960000BD59DF8010040F001008DF801009DF885
:10497000050040F001008DF80500E0050BD59DF81D
:10498000020040F001008DF802009DF8060040F0A2
:1049900001008DF806006A4603214FF4886001F09B
:1049A000A1FA10B901AA032100E004E040F231406D
:1049B00001F098FA18B1384604B0BDE8F081064815
:1049C00004810020F8E700004CCD6C000CC92C00DD
:1049D0003656760026466600B80100204FF47A72FB
:1049E00090FBF2F008B54843010E8DF80010010C61
:1049F0008DF80110010A8DF802108DF803006A4647
:104A000004214FF4AE7001F06DFA08BD0521B0FB32
:104A1000F1F008B5010A8DF800108DF801006A4622
:104A200002214FF4AD7001F05DFA08BD0521B0FB25
:104A3000F1F008B5010A8DF800108DF801006A4602
:104A400002214FF4AC7001F04DFA08BD08B5002109
:104A50008DF80010C10702D030218DF800108107B9
:104A600005D59DF8001041F00C018DF800104007AD
:104A700005D59DF8000040F003008DF800006A465F
:104A800001214FF4A47001F02DFA08BD08B560B102
:104A9000042800D90420401E8DF800006A46012138
:104AA00040F24F1001F01EFA08BD0120F3E70000AC
:104AB00070B504462DED028B82B040074FF0FF35F4
:104AC0007ED0B1F5C86F7BD800EE101AB8EE400A60
:104AD000DFED460A01A880EE208A00F037FC9DF841
:104AE0000400022806D0042810D0082835D0102849
:104AF00074D13EE09FED3E0A28EE000ABCEEC00AEB
:104B000010EE100A9FED3B0A82B20AE09FED3A0ACE
:104B100028EE000ABCEEC00A10EE100A9FED370A1C
:104B200082B228EE000A6E46BCEEC00A10EE100AF1
:104B300081B2100A8DF800008DF80120080A8DF866
:104B400002008DF80310E00726D0324602214FF410
:104B5000EA7001F0C7F998BB17E09FED290A28EE2B
:104B6000000ABCEEC00A10EE100A9FED260A82B2BF
:104B7000D7E79FED250A28EE000ABCEEC00A10EE2A
:104B8000100A9FED220A82B2CBE7B21C02214FF439
:104B9000927001F0A7F998B9A0070DD56A460221D5
:104BA0004FF4EC7001F09EF950B9B21C02214FF4A1
:104BB000947001F097F918B9600714D56A4600E0BF
:104BC0000CE002214FF4EE7001F08CF930B9B21C08
:104BD00002214FF4967001F085F920B1284602B009
:104BE000BDEC028B70BD0020F9E7000000004843D7
:104BF0000000804600004046000000460000C0451E
:104C00000000804500004045000000450000C04411
:104C10000521B0FBF1F008B5010A8DF800108DF800
:104C200001006A4602214FF4EF7001F05BF908BD04
:104C30000521B0FBF1F008B5010A8DF800108DF8E0
:104C400001006A4602214FF4ED7001F04BF908BDF6
:104C500010B50446FCF758F9206010BD82B0CDE9CC
:104C6000000121F0004001909DED000B02B051ECDD
:104C7000100B704713B54FF0FF330122694602480D
:104C8000FDF708F900981CBD140100201FB504466B
:104C9000274802AB042240680D210078FFF7E2F9B3
:104CA00010B1072004B010BD9DF808101C2000EAC8
:104CB000D1029DF80B10DFED1F0AC1F301131A4357
:104CC0008DF800209DF80920C1F3810300EAD2028B
:104CD0001A438DF801209DF80A2001F0030100EA33
:104CE000D20008439FED141A9FED140A8DF80200BC
:104CF00000216A46505C002804EB810002D080ED60
:104D0000001A09E0C0ED000A0CE000BFD0ED001A67
:104D100061EE801AC0ED001A535C5B1E13F0FF03B6
:104D20005354F3D1491CC9B20329E3D30020B9E796
:104D300024000020000000007B14AE3E1D5A843F7A
:104D40002DE9FE4F05460120C14E8DF800004FF0C1
:104D500000088DF8018030680C461746417D706868
:104D60006B4602220078FFF78DF94FF0FF3A0028DA
:104D70007AD1C82001F0E0F88DF8008030686B46E9
:104D80000122417C70680078FFF77CF90028EFD1A0
:104D900030686B460122417970680078FFF772F93C
:104DA0000028E5D130686B460122417D70680078AB
:104DB000FFF768F90028DBD130686B460122817E5D
:104DC00070680078FFF75EF90028D1D130686B4633
:104DD0000122017970680078FFF754F90028C7D1E3
:104DE0004FF00C098DF8009030686B460122017974
:104DF00070680078FFF746F9002835D10F2001F0E0
:104E00009BF8B06A6B460122407A8DF8000030684A
:104E1000817870680078FFF735F9002824D1B06AEE
:104E20006B460122007A8DF8000030684178706886
:104E30000078FFF727F9002873D1B06A807A0FB1A4
:104E400040F0E0008DF8000030686B460122817967
:104E500070680078FFF716F9002862D12FB1B06AA8
:104E6000C07A40F0E00001E04AE018208DF8000030
:104E700030686B460122C17970680078FFF702F94B
:104E8000F0BB17B1C82001F057F840208DF80000A2
:104E900030686B460122017970680078FFF7F2F8FC
:104EA00070BB78208DF8000030686B460122417994
:104EB00070680078FFF7E6F810BB322001F03CF88C
:104EC0008DF80080306847466B4641797068012252
:104ED0000078FFF7D7F898B931687068B046097B59
:104EE00000786B460222FFF7BDF848B9BDF8000014
:104EF000AF6040BAB0FBF9F06F60C6B22F6000E05F
:104F00000FE0A76067602760002739E0D8F800103D
:104F1000D8F804006B46497B00780C22FFF7A2F812
:104F200010B15046BDE8FE8FBDF80000236840BABE
:104F300002B2BDF80200BDF804101A44226040BA63
:104F4000626800B21044606049BAA06809B20844BF
:104F5000A060BDF806002B6840BA02B2BDF8080098
:104F60001A4440BA01B2BDF80A002A606A6840BA21
:104F700011446960A96800B208447F1CFFB2A860B0
:104F8000B742C3D328688322C117090441EA1041FC
:104F900000040023FBF745F932460023FBF741F9F3
:104FA000286068688322C117090441EA104100049F
:104FB0000023FBF736F932460023FBF732F968602D
:104FC000A8688322C117090441EA104100040023A4
:104FD000FBF727F932460023FBF723F9A860206886
:104FE0004FF40065C117090441EA104100042A4644
:104FF0000023FBF716F932460023FBF712F9206075
:1050000060682A46C117090441EA104100040023E0
:10501000FBF707F932460023FBF703F96060A0684D
:105020002A46C117090441EA104100040023FBF796
:10503000F8F832460023FBF7F4F8A060002802DD00
:10504000A0F5803001E000F58030A060002069E725
:1050500024000020F8B506462E480D46002440687E
:105060006B46032200780D21FEF7FCFF08B10720F4
:10507000F8BD9DF80000002200F01F008DF8000030
:105080009DF801009FED241A00F01F008DF801002B
:105090009DF802006B4600F01F008DF80200012110
:1050A00056F8220055F82270C01B00D5404200EE91
:1050B000100A985CB8EEC00A60EE010AD0B1B3EEF7
:1050C000090ADFED161A01E020EE210AC0B2401EE7
:1050D00010F0FF009854F7D1C0EE801AB7EE000A26
:1050E0000F4F31EEC00AB0EEC00A10EE100AB842FF
:1050F00007DC09E010EE900A0A4F3844B0F1D97F7E
:1051000002D901FA02F00443521C032AC8DB2046EC
:10511000F8BD0000240000200000803754E3853FE4
:10512000295C0F3E0000E0BE90F90010002902DD6E
:105130004FF00000704702DA4FF00400704790F91A
:105140000110002902DD4FF00100704702DA4FF034
:105150000500704790F90200002802DD4FF00200C0
:10516000704702DA4FF0060070474FF007007047B3
:10517000FCF786F9FDF78CFAFDF7E4F8FDF7CCF8BB
:10518000FDF74AF9FDF768F9FDF726F94FF4FA74CF
:1051900009E000BF01F03CF801463CA0FDF748FCE7
:1051A0002046FBF7A1FD01F033F80028F2D1FEF70D
:1051B00079FFFDF78FF9FDF76DF9394C394801F0AA
:1051C0008DF8374800F0BAFE2068FBF713FA41EC7F
:1051D000100B35A053EC102BFDF72AFC6068FBF791
:1051E00009FA41EC100B33A053EC102BFDF720FC17
:1051F000A068FBF7FFF941EC100B31A053EC102B2A
:10520000FDF716FC31A0FDF713FCA068FBF7F2F9DF
:1052100041EC100B2EA153EC102B3048FDF718FC7D
:10522000002102232D4A0846FDF7C2F90520FBF7AD
:105230005BFD2068FBF7DEF941EC100B274853ECCF
:10524000102B27A1801DFDF703FC244A0223921D89
:1052500019460020FDF7ACF90520FBF745FD606815
:10526000FBF7C8F941EC100B1C4853EC102B1FA1A5
:105270000C30FDF7EDFB194A02230C32042100200B
:10528000FDF796F90520FBF72FFD97E73078257895
:10529000202849445F4552524F52290D0A00000010
:1052A000D8010020C801002050697463683A2025A5
:1052B00066092000526F6C6C3A2020256609200098
:1052C0005961773A20202025660920000D0A000048
:1052D0007961773A25302E32660000000000002008
:1052E00070697463683A25302E326600726F6C6C98
:1052F0003A25302E326600002DE9F041124C20F0A4
:105300000101002594F8240010B10020BDE8F081CF
:10531000A07A4FF0FF3668B10840277C207488429D
:1053200000D0354641B1012000F00EFF00F09AFA9E
:1053300038B127743046E9E7207D00B1012000F044
:1053400003FF2846E2E70000240000200D494A7AC6
:1053500042B1012A08D0022A0FD0032A0FD04FF001
:10536000FF307047022200E004220270C97C11B1B4
:105370001106C90D0170002070470822F5E71022C0
:10538000F3E70000240000200F494A7A42B1012AC5
:1053900009D0022A11D0032A12D04FF0FF307047F3
:1053A0004FF4804201E041F69C720280C97C11B149
:1053B000C2F34E010180002070474FF48052F4E7A1
:1053C0004FF40062F1E70000240000200B49097A45
:1053D00039B1012907D002290AD003290BD00021B5
:1053E00003E0FA2101E04FF4FA71018000207047D8
:1053F0004FF47A71F9E74FF4FA61F6E724000020E0
:105400000D49097A41B1012909D002290DD003299A
:105410000ED04FF0FF3070479FED080A01E09FED7E
:10542000080A80ED000A002070479FED060AF8E7A1
:105430009FED050AF5E7000024000020000003436B
:105440000000834233330342333383410C49C97A2A
:10545000072913D2DFE801F01204060A0C0E10002F
:10546000BC2100E062210180002070472A21FAE778
:105470001421F8E70A21F6E70521F4E70021F2E715
:1054800024000020054991F8242012B14FF0FF308C
:105490007047C98901800020704700002400002067
:1054A0002DE9FC414C4C80208DF8000020686B46B3
:1054B0000122417D60680078FEF7E4FD4FF0FF3780
:1054C000002832D1642000F037FD00258DF800500F
:1054D00020686B460122417D60680078FEF7D2FDAE
:1054E000002870D120686B460622417E60680078F3
:1054F000FEF7B8FD002866D19DF805009DF8031061
:10550000C007400F01F0010140EA41019DF8010090
:105510004FF0010600F00100014309D0012905D038
:10552000022915D02DA0FDF783FA4CE0E67410E0B7
:1055300020686B460122C17860680078FEF792FD12
:1055400040BB9DF8000010F00F0020D0042822D0AE
:10555000E574FF2004F80A0F4FF6FF7104F8020CFF
:1055600004F8010C6070A180A0712072A6702676EC
:105570006576E572A572E56025616561A576E576DB
:10558000A5834FF4FA6000F073FB18B907E01D48DB
:10559000FDF74EFA17E01CA0FDF74AFAC6E7022015
:1055A00000F088FA78B92A2000F0CAFB58B93220F6
:1055B00000F0FCFB38B90020FFF79EFE18B9002070
:1055C00000F0ACFA10B13846BDE8FC81002000F0D4
:1055D0002DFC0020F8E7000024000020556E7375B4
:1055E00070706F7274656420736F66747761726532
:1055F0002070726F64756374207265762025642E46
:105600000A000000C079000848616C662073656E6E
:105610007369746976697479207061727420666F39
:10562000756E642E0A0000002DE9FF4FDFF89480AC
:10563000064685B098F8250015460F464FF0FF390D
:10564000B0BBAFB3002420E0301B102800DD1020D9
:1056500080B283463A1901469246204600F042FC49
:1056600030BB6A465946204600F0D2F800BB50468F
:105670005A466946FAF718FE20B16FF0010009B0EA
:10568000BDE8F08F04EB0B0084B2B442DCD3280AEF
:105690008DF810008DF81150D8F80000444604AB86
:1056A000417FD8F8040002220078FEF7EBFC08B135
:1056B0004846E4E7012084F825000898E0840020AB
:1056C000DDE70000240000202DE9F84305464FF0F7
:1056D000FF39282844D80727284C00267DB101200F
:1056E00000F0FCFA20208DF800004FF00108012D99
:1056F00017D0052D18D88DF8018005201FE0002057
:1057000000F0ECFA8DF800608DF8017020686B46AF
:105710000222417D60680078FEF7B4FC00BB26756C
:1057200029E08DF80160E8E7142D04D802208DF8F7
:1057300001000A2003E003208DF80100142000F08E
:10574000FFFA9DF801006B4607EB80108DF8010011
:1057500020680222417D60680078FEF793FC10B15A
:105760004846BDE8F8830820A072267384F81480A8
:105770000020FFF7C1FD0020F3E700002400002017
:105780002DE9F843214C0646174694F82400894633
:105790004FF0FF3890B3A07A80B320686B460222A6
:1057A000017B60680078FEF75DFC38BBBDF8000047
:1057B00045BAB54202D2002038701FE060684188C7
:1057C000B5EB510F11D9216800786B46C97C0122D5
:1057D000FEF748FC90B99DF80000C00605D500F022
:1057E00041F86FF00100BDE8F8832068F2B24B4643
:1057F000417B60680078FEF735FC08B14046F2E76F
:10580000B5FBF6F0401E38700020ECE724000020C5
:10581000F8B516000D464FF0FF371FD0104CA17A97
:10582000E1B1010A8DF80010C0B28DF801004119F4
:1058300060684289914211D8216800786B46C97E20
:105840000222FEF71FFC48B92068EAB23346017E07
:1058500060680078FEF706FC002800D03846F8BDE6
:1058600024000020F8B5564C4FF0FF36A07A0028EF
:105870007DD000258DF8005020686B460122417CC8
:1058800060680078FEF7FEFB002870D120686B4648
:105890000122417960680078FEF7F4FB002866D1A8
:1058A00020686B460122017960680078FEF7EAFB08
:1058B00000285CD194F82400E0B30C208DF800009F
:1058C00020686B460122017960680078FEF7DAFBF8
:1058D000002872D1322000F02FFBC0208DF800008C
:1058E000A07AC00702D0E0208DF8000020686B4647
:1058F0000122017960680078FEF7C4FB00285CD1C2
:10590000607C18B102208DF8000001E08DF8005095
:1059100020686B460122417C60680078FEF7B2FB8C
:1059200028BB8DF8005020686B46012241796068E1
:1059300000783EE0FFE704208DF8000020686B4609
:105940000122017960680078FEF79CFB78B9A07CA1
:1059500090B9A07AC0070FD05FF060008DF800000A
:1059600020686B46012201796068007800E024E03D
:10597000FEF788FB08BB01E04020EFE7322000F093
:10598000DBFA607C18B101208DF8000001E08DF891
:10599000005020686B460122417C60680078FEF769
:1059A00071FB50B92068064B0122417960681033C1
:1059B0000078FEF767FB002800D03046F8BD0000F5
:1059C000240000202DE9F047394C82468AB094F833
:1059D00024000F4620B1002000F00EF9012600E05F
:1059E000002607A8FFF7F2FC06A8FFF7AFFC09A8FE
:1059F000FFF72CFD08A8FFF745FD94F80A9094F8EE
:105A000010800025002239465046FFF799F910B161
:105A10006D1C022DF6DB022D1AD00025012203A9F0
:105A20006846FFF78DF910B16D1C022DF6DB022DD3
:105A30000ED003A93846FEF77FF9C7B26946504633
:105A4000FFF708FB10F0FF0F4FF0000502D002E057
:105A5000002503E001250FB945F00205FF20207263
:105A60006072E0724FF6FF71E181A0722074012034
:105A70002073BDF81C0000F0FBF89DF8180000F042
:105A800019F8BDF8240000F05BF9BDF8200000F023
:105A90008DF9484600F0CAF94046FFF72DFC16B1D3
:105AA000012000F0A9F80AB02846BDE8F087000000
:105AB0002400002038B5184C4FF0FF35A17A19B3F7
:105AC000022806D0042806D008280ED010281BD1A2
:105AD0000DE0002000E008208DF80000607A9DF8BD
